:100000000C948D010C9456020C9487020C94B80247
:100010000C94E9020C941A030C944B030C947C038B
:100020000C94AD030C94BE010C94BE010C943821C9
:100030000C94BE010C943F0E0C94BE010C94BE01B6
:100040000C94BE010C94BE010C94BE010C94BE0134
:100050000C94BE010C94BE010C94BE010C94DE0302
:100060000C94BE010C949E260C9427250C94BE0182
:100070000C94BE010C94BE010C94BE010C94BE0104
:100080000C94BE010C94BE010C94BE010C94BE01F4
:100090000C94C9260C945A250C94BE010C94BE01F4
:1000A0000C94BE010C94BE010C94BE010C94BE01D4
:1000B0000C94BE010C94BE010C94BE010C94BE01C4
:1000C0000C94BE010C94BE010C94BE010C94F42659
:1000D0000C948D250C94BE010C941F270C94C02504
:1000E0000C94BE010B02D501DD01E901F6011702F6
:1000F000240248023E024002420244024A024C02EA
:1001000004050705F604FA0400053E050B050F0576
:10011000150519051D05230527052B053E05310588
:10012000350539050C943E020C940B050C94D50151
:100130000C9427050C9407050C9435050C940F05B9
:100140000C9444020C94F6040C9424020C943E0586
:100150000C9477070C9431050C944C020C941905FF
:100160000C9400050C944A020C940B020C94480267
:100170000C941D050C9415050C9405060C94E901CE
:100180000C9417020C94DD010C9439050C94FA04BC
:100190000C94F6010C9442020C9404050C942B056B
:1001A0000C9496270C9440020C94230500000A0B33
:1001B00002090C0D0E0807030401000000000000F6
:1001C000000000000000000000000000000000002F
:1001D00000000000000000001211100000000000EC
:1001E000000000000000000000000000000000000F
:1001F000000001021020200808102040102040803C
:1002000002010201080402010102040810204080DA
:100210008040201008040201800402018040201068
:1002200008040201080402010102040810204080B1
:10023000010204081020408005050505070508088F
:100240000808020202020A0A080804040404010160
:100250000101010101010303030303030303040775
:1002600007070C0C0C0C0C0C0C0C0202020206060C
:100270000606060606060B0B0B0B0B0B0B0B000002
:1002800020002300260029002C002F00320000014E
:1002900000000301060109010000220025002800DA
:1002A0002B002E003100340002010000050108017E
:1002B0000B0100002100240027002A002D0030003F
:1002C000330001010000040107010A0102000102DC
:1002D0000541524D3B414E474C453B484F52495AD0
:1002E0004F4E3B4D41473B00524F4C4C3B504954C5
:1002F00043483B5941573B414C543B506F733B5033
:100300006F73523B4E6176523B4C4556454C3B4DCC
:1003100041473B56454C3B00962711241FBECFEF6B
:10032000D1E2DEBFCDBF00E00CBF12E0A0E0B2E042
:10033000EAE8F5E500E00BBF02C007900D92A43794
:10034000B107D9F71CE0A4E7B2E001C01D92A43ABE
:10035000B107E1F713E0CAE1D3E000E006C022975D
:100360000109FE010BBF0E946228C831D10780E05D
:100370000807A9F70E94A5270C94C32A0C94000033
:10038000883008F06DC0E82FF0E0EE0FFF1FEC584A
:10039000FD4F7183608390E0FC013197E730F105F8
:1003A00090F5EE58FF4F0C944828809169008C7F9F
:1003B000842B80936900E89A089580916900440F26
:1003C000551F440F551F837F842B80936900E99A42
:1003D00008958091690074E0440F551F7A95E1F704
:1003E0008F7C842B80936900EA9A0895809169003C
:1003F00066E0440F551F6A95E1F78F73842B809355
:100400006900EB9A089580916A008C7F842B809319
:100410006A00EC9A089580916A00440F551F440FBA
:10042000551F837F842B80936A00ED9A08958091F5
:100430006A0024E0440F551F2A95E1F78F7C842B36
:1004400080936A00EE9A089580916A0096E0440FC6
:10045000551F9A95E1F78F73842B80936A00EF9A6A
:100460000895883010F5482F50E0FA013197E730B1
:10047000F10560F4E758FF4F0C944828E8980DC048
:10048000E9980BC0EA9809C0EB9807C0EC9805C042
:10049000ED9803C0EE9801C0EF98E82FF0E0EE0F62
:1004A000FF1FEC58FD4F1182108208951F920F928A
:1004B0000FB60F9211240BB60F922F933F934F93C9
:1004C0005F936F937F938F939F93AF93BF93EF93BC
:1004D000FF938091780290917902892B29F0E09125
:1004E0007802F09179021995FF91EF91BF91AF9148
:1004F0009F918F917F916F915F914F913F912F913C
:100500000F900BBE0F900FBE0F901F9018951F926B
:100510000F920FB60F9211240BB60F922F933F93A9
:100520004F935F936F937F938F939F93AF93BF93FB
:10053000EF93FF9380917A0290917B02892B29F0AF
:10054000E0917A02F0917B021995FF91EF91BF91B2
:10055000AF919F918F917F916F915F914F913F915B
:100560002F910F900BBE0F900FBE0F901F901895FC
:100570001F920F920FB60F9211240BB60F922F936A
:100580003F934F935F936F937F938F939F93AF931B
:10059000BF93EF93FF9380917C0290917D02892B12
:1005A00029F0E0917C02F0917D021995FF91EF9185
:1005B000BF91AF919F918F917F916F915F914F917B
:1005C0003F912F910F900BBE0F900FBE0F901F9079
:1005D00018951F920F920FB60F9211240BB60F921F
:1005E0002F933F934F935F936F937F938F939F933B
:1005F000AF93BF93EF93FF9380917E0290917F0220
:10060000892B29F0E0917E02F0917F021995FF91EC
:10061000EF91BF91AF919F918F917F916F915F917A
:100620004F913F912F910F900BBE0F900FBE0F90E7
:100630001F9018951F920F920FB60F9211240BB6B0
:100640000F922F933F934F935F936F937F938F936B
:100650009F93AF93BF93EF93FF9380917402909118
:100660007502892B29F0E0917402F09175021995B9
:10067000FF91EF91BF91AF919F918F917F916F917A
:100680005F914F913F912F910F900BBE0F900FBE36
:100690000F901F9018951F920F920FB60F92112472
:1006A0000BB60F922F933F934F935F936F937F936C
:1006B0008F939F93AF93BF93EF93FF9380917602B5
:1006C00090917702892B29F0E0917602F0917702E0
:1006D0001995FF91EF91BF91AF919F918F917F916C
:1006E0006F915F914F913F912F910F900BBE0F90A3
:1006F0000FBE0F901F9018951F920F920FB60F927A
:1007000011240BB60F922F933F934F935F936F93E8
:100710007F938F939F93AF93BF93EF93FF938091BA
:10072000800290918102892B29F0E0918002F09162
:1007300081021995FF91EF91BF91AF919F918F9198
:100740007F916F915F914F913F912F910F900BBED1
:100750000F900FBE0F901F9018951F920F920FB61B
:100760000F9211240BB60F922F933F934F935F93E9
:100770006F937F938F939F93AF93BF93EF93FF9369
:100780008091820290918302892B29F0E09182026C
:10079000F09183021995FF91EF91BF91AF919F91D5
:1007A0008F917F916F915F914F913F912F910F901A
:1007B0000BBE0F900FBE0F901F9018951F920F92B7
:1007C0000FB60F9211242F933F938F939F93AF9364
:1007D000BF938091840290918502A0918602B0918E
:1007E000870230918C0223E0230F2D3720F40196ED
:1007F000A11DB11D05C026E8230F0296A11DB11D44
:1008000020938C028093840290938502A0938602A9
:10081000B09387028091880290918902A0918A0208
:10082000B0918B020196A11DB11D80938802909317
:100830008902A0938A02B0938B02BF91AF919F91DE
:100840008F913F912F910F900FBE0F901F90189591
:100850002FB7F8946091840270918502809186028E
:10086000909187022FBF08953FB7F8948091880236
:1008700090918902A0918A02B0918B0226B5A89B23
:1008800005C02F3F19F00196A11DB11D3FBF66277E
:10089000782F892F9A2F620F711D811D911D42E0C3
:1008A000660F771F881F991F4A95D1F70895CF9239
:1008B000DF92EF92FF92CF93DF936B017C010E9456
:1008C0003404EB01C114D104E104F10489F00E9465
:1008D000D7050E9434046C1B7D0B683E734090F377
:1008E00081E0C81AD108E108F108C851DC4FEACF0D
:1008F000DF91CF91FF90EF90DF90CF900895019717
:1009000039F0880F991F880F991F02970197F1F707
:100910000895789484B5826084BD84B5816084BD77
:1009200085B5826085BD85B5816085BDEEE6F0E068
:10093000808181608083E1E8F0E0108280818260C4
:100940008083808181608083E0E8F0E08081816045
:100950008083E1EBF0E0808184608083E0EBF0E075
:10096000808181608083E1E9F0E080818260808322
:10097000808181608083E0E9F0E080818160808314
:10098000E1EAF0E080818260808380818160808301
:10099000E0EAF0E0808181608083E1E2F1E0808143
:1009A00082608083808181608083E0E2F1E08081E9
:1009B00081608083EAE7F0E08081846080838081C9
:1009C0008260808380818160808380818068808371
:1009D0001092C100089590E0FC013197E231F105D9
:1009E00008F04CC0E058FF4F0C94482880918000DC
:1009F0008F7703C0809180008F7D80938000089561
:100A000080918000877FF9CF84B58F7702C084B54D
:100A10008F7D84BD08958091B0008F7703C0809151
:100A2000B0008F7D8093B0000895809190008F7703
:100A300007C0809190008F7D03C080919000877FD8
:100A40008093900008958091A0008F7707C08091D7
:100A5000A0008F7D03C08091A000877F8093A000BD
:100A60000895809120018F7707C0809120018F7DAC
:100A700003C080912001877F809320010895CF9348
:100A8000DF9390E0FC01EE50FE4F2491FC01E85C06
:100A9000FD4F8491882349F190E0880F991FFC0154
:100AA000EE54FD4FA591B49188569D4FFC01C59120
:100AB000D4919FB7611108C0F8948C91209582233E
:100AC0008C93888182230AC0623051F4F8948C910F
:100AD000322F309583238C938881822B888304C0A6
:100AE000F8948C91822B8C939FBFDF91CF910895C6
:100AF0000F931F93CF93DF931F92CDB7DEB7282FAD
:100B000030E0F901E455FE4F8491F901EE50FE4FBB
:100B10001491F901E85CFD4F04910023C9F088238A
:100B200021F069830E94EB046981E02FF0E0EE0F71
:100B3000FF1FE856FD4FA591B4919FB7F8948C9193
:100B4000611103C01095812301C0812B8C939FBF3D
:100B50000F90DF91CF911F910F910895CF93DF9365
:100B6000282F30E0F901E455FE4F8491F901EE5051
:100B7000FE4FD491F901E85CFD4FC491CC2391F074
:100B800081110E94EB04EC2FF0E0EE0FFF1FE25802
:100B9000FD4FA591B4912C912D2381E090E021F49B
:100BA00080E002C080E090E0DF91CF910895089549
:100BB000FC01818D228D90E0805C9F4F821B91090A
:100BC0008F7399270895FC01918D828D981731F0CC
:100BD000828DE80FF11D858D90E008958FEF9FEFD6
:100BE0000895FC01918D828D981761F0828DDF014F
:100BF000A80FB11D5D968C91928D9F5F9F73928F10
:100C000090E008958FEF9FEF089580E090E0892BAA
:100C100041F080E090E0892B21F00E9400008111DA
:100C200025C080E090E0892B41F080E090E0892BA6
:100C300021F00E94000081111CC080E090E0892B0F
:100C400041F080E090E0892B21F00E9400008111AA
:100C500013C080E090E0892BA1F080E090E0892B28
:100C600081F00E94000081110AC008950E940000D6
:100C7000D8CF0E940000E1CF0E940000EACF0C9480
:100C800000000895FC01848DDF01A80FB11DA35A57
:100C9000BF4F2C91848D90E001968F739927848F9C
:100CA000A689B7892C93A089B1898C9180648C9393
:100CB000938D848D981306C00288F389E02D80817E
:100CC0008F7D80830895CF93DF93EC01888D8823F7
:100CD000C9F0EA89FB89808185FD05C0A889B989A9
:100CE0008C9186FD0FC00FB607FCF5CF808185FF84
:100CF000F2CFA889B9898C9185FFEDCFCE010E94F2
:100D00004206E7CFDF91CF910895CF92DF92FF9215
:100D10000F931F93CF93DF931F92CDB7DEB76C0174
:100D2000DC015B969C915B975C968C915C97981329
:100D300007C05096ED91FC915197808185FD32C09E
:100D4000F601038D10E00F5F1F4F0F731127F02E78
:100D5000F601848DF81211C00FB607FCF9CFD60149
:100D60005096ED91FC915197808185FFF1CFC6019E
:100D700069830E9442066981EBCF838DE80FF11DE4
:100D8000E35AFF4F6083D6015B960C935B975296B4
:100D9000ED91FC91539780818062808381E0589629
:100DA0008C930DC0D6015696ED91FC9157976083B8
:100DB0005096ED91FC91519780818064808381E011
:100DC00090E00F90DF91CF911F910F91FF90DF90F6
:100DD000CF900895BF92CF92DF92EF92FF92CF9380
:100DE000DF93EC016A017B01B22EE889F98982E088
:100DF0008083411581EE580761057105A1F060E01F
:100E000079E08DE390E0A70196010E940728215028
:100E1000310941095109569547953795279521156F
:100E200080E1380798F0E889F989108260E874E871
:100E30008EE190E0A70196010E9407282150310918
:100E4000410951095695479537952795EC85FD85BC
:100E50003083EE85FF852083188EEC89FD89B08272
:100E6000EA89FB89808180618083EA89FB898081AE
:100E700088608083EA89FB89808180688083EA8931
:100E8000FB8980818F7D8083DF91CF91FF90EF90F0
:100E9000DF90CF90BF900895FC01938D848D9813BF
:100EA000FCCFA289B3898C918F7E8C93A289B38960
:100EB0008C91877F8C93A289B3898C918F778C9347
:100EC000A289B3898C918F7D8C93828D818F0895B7
:100ED000FC01538D448D252F30E0842F90E0821B40
:100EE000930B541710F0CF96089501970895AF9281
:100EF000BF92CF92DF92EF92FF920F931F93CF9307
:100F0000DF936C017B01C0E0D0E000E010E0F6016F
:100F1000EC0FFD1F4AE050E06281C7010E94C30947
:100F20005C016EE2C7010E9462088A0D9B1D080FDA
:100F3000191F2196C330D10551F74AE050E0F60160
:100F40006581C7010E94C309800F911FDF91CF9176
:100F50001F910F91FF90EF90DF90CF90BF90AF90D7
:100F6000089524E632E0FC0131832083128213824B
:100F70001482158208950F93FC0184E692E0918318
:100F8000808362834383248305830F91089524E63D
:100F900032E0FC0131832083428353836483758371
:100FA000089524E632E0FC0131832083FB01408177
:100FB000518162817381FC01428353836483758311
:100FC0000895FB014081518162817381FC0142835C
:100FD0005383648375830895FC0142835383648340
:100FE000758308959B01BC016E5F7F4F44E050E024
:100FF000C9010E948E2A21E0892B09F020E0822F6E
:10100000089580E090E008950895CF92DF92EF92E6
:10101000FF920F931F93CF93DF936C017A01EB0143
:10102000E60EF71E00E010E0CE15DF0561F06991D5
:10103000D601ED91FC910190F081E02DC60119954A
:10104000080F191FF1CFC801DF91CF911F910F91A8
:10105000FF90EF90DF90CF900895EF92FF920F9363
:101060001F93CF93DF938C01FB01C0E0D0E064912C
:101070007F018FEFE81AF80A662361F0D801ED913D
:10108000FC910190F081E02DC8011995C80FD91F7E
:10109000F701EDCFCE01DF91CF911F910F91FF901E
:1010A000EF900895DC01ED91FC91DB0114964D91D8
:1010B0005C9115976D917C910280F381E02D1994DC
:1010C0000C94B427DC01ED91FC910190F081E02DAE
:1010D0001994DB01ED91FC9111970190F081E02DC5
:1010E000BC01CD0119940F931F93CF93DF93EC01B3
:1010F0006DE00E9462088C016AE0CE010E946208E5
:10110000800F911FDF91CF911F910F9108950F9341
:101110001F93CF93DF93EC010E942D088C01CE0129
:101120000E947308800F911FDF91CF911F910F9143
:1011300008950F931F93CF93DF93EC010E94520801
:101140008C01CE010E947308800F911FDF91CF9117
:101150001F910F9108950F931F93CF93DF93EC018D
:101160000E94B4278C01CE010E947308800F911F4A
:10117000DF91CF911F910F9108950F931F93CF93FC
:10118000DF93EC010E9462088C01CE010E9473087B
:10119000800F911FDF91CF911F910F9108950F93B1
:1011A0001F93CF93DF93EC010E9469088C01CE015D
:1011B0000E947308800F911FDF91CF911F910F91B3
:1011C00008958F929F92AF92BF92CF92DF92EF924B
:1011D000FF920F931F93CF93DF93CDB7DEB7A19705
:1011E0000FB6F894DEBF0FBECDBF7C01C42EE52F35
:1011F000CB01D22E19A221E02D1510F02AE0D22E1B
:101200008E010F5D1F4F8D2C912CA12CB12C6C2DBC
:101210007E2FA50194010E9407288C2DD29E801953
:101220001124015011098A3014F4805D01C0895CD9
:10123000F8018083211531054105510521F0C22EA9
:10124000E32FCA01E4CFB801C7010E94B427A196D9
:101250000FB6F894DEBF0FBECDBFDF91CF911F91C7
:101260000F91FF90EF90DF90CF90BF90AF909F9045
:101270008F900895CF92DF92EF92FF920F931F937A
:10128000CF93DF93EC016A017B012115310579F4DD
:10129000E881F9810190F081E02D642FDF91CF91F9
:1012A0001F910F91FF90EF90DF90CF9019942A300B
:1012B0003105E9F477FF1AC06DE20E9462088C01E3
:1012C00044275527BA014C195D096E097F092AE0A8
:1012D000CE010E94E108800F911FDF91CF911F91F5
:1012E0000F91FF90EF90DF90CF9008952AE0B70123
:1012F000A601CE01DF91CF911F910F91FF90EF904A
:10130000DF90CF900C94E1089A01AB01662757FD5E
:101310006095762F0C943A090F931F93CF93DF9328
:10132000EC019A01AB01662757FD6095762F0E946C
:101330003A098C01CE010E947308800F911FDF9142
:10134000CF911F910F9108950F931F93CF93DF9328
:10135000EC010E943A098C01CE010E947308800FB3
:10136000911FDF91CF911F910F91089521153105A4
:1013700041F4DC01ED91FC910190F081E02D642FAE
:1013800019940C94E1089A01462F50E060E070E057
:101390000C94B6090F931F93CF93DF93EC019A013E
:1013A000462F50E060E070E00E94B6098C01CE014B
:1013B0000E947308800F911FDF91CF911F910F91B1
:1013C00008959A01AB0160E070E00C94B6090F93A8
:1013D0001F93CF93DF93EC019A01AB0160E070E0C3
:1013E0000E94B6098C01CE010E947308800F911FE4
:1013F000DF91CF911F910F9108950F931F93CF937A
:10140000DF93EC010E94B6098C01CE010E947308A3
:10141000800F911FDF91CF911F910F9108954F92EF
:101420005F926F927F928F929F92AF92BF92CF9274
:10143000DF92EF92FF920F931F93CF93DF93EC0114
:101440006A017B01B22E9A01AB01C701B6010E946D
:10145000812A882319F066E672E027C02601370149
:10146000E89477F82FEF3FEF4FE75FE7C301B20152
:101470000E94812A81110DC02FEF3FEF4FE75FE7F8
:10148000C301B2010E94CB2818161CF46AE672E070
:101490000CC02FEF3FEF4FE75FE4C701B6010E949A
:1014A0001A2A1816ACF46EE672E0CE01DF91CF91E5
:1014B0001F910F91FF90EF90DF90CF90BF90AF9072
:1014C0009F908F907F906F905F904F900C94B42777
:1014D0002FEF3FEF4FE75FECC701B6010E94CB282B
:1014E00087FDE1CF20E030E0A901C701B6010E94ED
:1014F000CB2887FF0AC06DE2CE010E9462088C01F2
:10150000F7FAF094F7F8F09402C000E010E0A12C94
:1015100060E070E080E09FE3AB1441F020E030E059
:1015200040E251E40E94CF28A394F6CF9B01AC0186
:10153000C701B6010E9467286B017C010E943C290B
:101540002B013C010E9468299B01AC01C701B60137
:101550000E9466286B017C012AE0B301A201CE0142
:101560000E94E108080F191FBB2039F062E772E002
:10157000CE010E94B427080F191F7B2C772041F160
:1015800020E030E040E251E4C701B6010E941E2A8B
:101590006B017C010E9437294B01AA2497FCA0947F
:1015A000BA2C2AE030E0B501A401CE010E943A092C
:1015B000080F191FC501B4010E946A299B01AC01E3
:1015C000C701B6010E9466286B017C017A94D6CFD0
:1015D000C801DF91CF911F910F91FF90EF90DF90A5
:1015E000CF90BF90AF909F908F907F906F905F90C3
:1015F0004F9008950C940F0A0F931F93CF93DF938E
:10160000EC010E940F0A8C01CE010E947308800F2A
:10161000911FDF91CF911F910F9108953F924F92AB
:101620005F926F927F928F929F92AF92BF92CF9272
:10163000DF92EF92FF920F931F93CF93DF9300D02F
:101640001F92CDB7DEB78B0129013A0190910102BB
:10165000981721F09F3F09F0B6C204C0ECECF2E00D
:10166000349004C180930102ECECF2E0E491EF3F8E
:1016700009F4A9C2E23009F480C074F5EE2309F43C
:101680005BC0E13009F0F1C010928000109281003F
:101690009091810098609093810090918100916079
:1016A00090938100282F30E0F901E85CFD4FE49130
:1016B000F0E0EE0FFF1FE856FD4F45915491509317
:1016C000B1024093B002F901EE50FE4F24912093F5
:1016D000AF0233243394CCC0E43009F49EC00CF440
:1016E00074C0E53009F0C1C01092200110922101B0
:1016F0009091210198609093210190912101916036
:1017000090932101282F30E0F901E85CFD4FE4912E
:10171000F0E0EE0FFF1FE856FD4F459154915093B6
:10172000950240939402F901EE50FE4F24912093CC
:10173000930255E0352E9CC014BC15BC94B5926044
:1017400094BD95B5916095BD282F30E0F901E85C16
:10175000FD4FE491F0E0EE0FFF1FE856FD4F45917D
:1017600054915093B8024093B702F901EE50FE4FE6
:1017700024912093B602312C7BC01092B0001092BD
:10178000B1009091B00092609093B0009091B10040
:1017900091609093B100282F30E0F901E85CFD4F93
:1017A000E491F0E0EE0FFF1FE856FD4F4591549194
:1017B0005093AA024093A902F901EE50FE4F2491E2
:1017C0002093A80222E0322E53C010929000109273
:1017D0009100909191009860909391009091910068
:1017E000916090939100282F30E0F901E85CFD4F63
:1017F000E491F0E0EE0FFF1FE856FD4F4591549144
:101800005093A3024093A202F901EE50FE4F24919F
:101810002093A102B3E03B2E2BC01092A0001092A7
:10182000A1009091A10098609093A1009091A100D7
:1018300091609093A100282F30E0F901E85CFD4F02
:10184000E491F0E0EE0FFF1FE856FD4F45915491F3
:1018500050939C0240939B02F901EE50FE4F24915D
:1018600020939A0274E0372E03C03E2E37FCABC1A2
:1018700061E00E943F054801A12CB12C832D8D7F92
:1018800009F0C0C060E072E18AE790E0A501940130
:101890000E94072829833A834B835C8369017A017C
:1018A00081E0C81AD108E108F1089FEFC916D104F8
:1018B000E104F10409F008F49AC060E472E48FE0F6
:1018C00090E0A50194010E94072869017A01E1E0F6
:1018D000CE1AD108E108F108F2E03F1219C08FEFEB
:1018E000C816D104E104F10409F008F487C060E9E6
:1018F00070ED83E090E0A50194010E940728690142
:101900007A0191E0C91AD108E108F10883E001C029
:1019100082E0EFEFCE16D104E104F10409F008F4FF
:1019200067C068E478EE81E090E0A50194010E9430
:10193000072869017A01F1E0CF1AD108E108F1081E
:101940003320E1F082E038121BC09FEFC916D104AA
:10195000E104F10409F008F434C164E274EF80E0BA
:1019600090E0A50194010E94072869017A01E1E055
:10197000CE1AD108E108F10885E003C083E001C078
:1019800084E0FFEFCF16D104E104F10489F180F186
:1019900062E17AE780E090E0A50194010E940728C7
:1019A00069017A0181E0C81AD108E108F108311013
:1019B00002C084E001C086E09FEFC916D104E104B3
:1019C000F104B1F0A8F0C980DA80EB80FC809AE0E5
:1019D000F694E794D794C7949A95D1F7E1E0CE1A9C
:1019E000D108E108F108332031F087E008C081E038
:1019F000332011F004C085E085BD52C082E08093A1
:101A0000B1004EC060E072E18AE790E0A501940168
:101A10000E94072869017A01F1E0CF1AD108E10894
:101A2000F108C114D10481E0E806F10488F068E40B
:101A300078EE81E090E0A50194010E9407286901F9
:101A40007A0191E0C91AD108E108F10893E001C0D8
:101A500091E0E1E03E1207C080918100887F892BF0
:101A6000809381001DC0F3E03F1207C08091910078
:101A7000887F892B8093910013C084E0381207C0BF
:101A80008091A100887F892B8093A10009C0E5E0A7
:101A90003E1206C080912101887F892B809321010D
:101AA000411451046104710471F0D801AA0FBB1FE5
:101AB000A30192010E94E02728EE33E040E050E0CD
:101AC0000E94072803C02FEF3FEFA901F2E03F1665
:101AD00009F443C0F315BCF0332081F181E03812E2
:101AE00072C0D0928900C09288002093B2023093D5
:101AF000B3024093B4025093B50280916F008260AC
:101B000080936F0060C094E0391609F448C039161C
:101B1000A4F1E5E03E1257C0D0922901C0922801FD
:101B20002093960230939702409398025093990223
:101B30008091730082608093730045C0C7BC20937E
:101B4000B9023093BA024093BB025093BC02809119
:101B50006E00826080936E0036C0C092B300209306
:101B6000AB023093AC024093AD025093AE02809131
:101B7000700082608093700026C0D0929900C0925D
:101B800098002093A4023093A5024093A60250939C
:101B9000A7028091710082608093710014C0D0927E
:101BA000A900C092A80020939D0230939E0240930A
:101BB0009F025093A0028091720082608093720015
:101BC00002C084E01CCF0F900F900F900F90DF9118
:101BD000CF911F910F91FF90EF90DF90CF90BF902A
:101BE000AF909F908F907F906F905F904F903F90BD
:101BF00008958230A9F028F4882349F0813051F00B
:101C00000895843009F1E8F0853009F108951092C3
:101C10006E00089580916F008D7F80936F0008950E
:101C2000809170008D7F8093700081E08093B00080
:101C30008091B100887F84608093B1001092B300DE
:101C400008951092710008951092720008951092F4
:101C500073000895CF93C82F809101028C1307C0A1
:101C6000ECECF2E084919FEF9093010201C08FEFC2
:101C70000E94F90D60E08C2FCF910C9478051F9293
:101C80000F920FB60F9211240BB60F922F933F9322
:101C90004F935F936F937F938F939F93AF93BF9374
:101CA000EF93FF938091AB029091AC02A091AD02B3
:101CB000B091AE02892B8A2B8B2B51F19091A80207
:101CC000E091A902F091AA02808189278083809106
:101CD000AB029091AC02A091AD02B091AE02181689
:101CE00019061A061B06C4F48091AB029091AC024F
:101CF000A091AD02B091AE020197A109B109809304
:101D0000AB029093AC02A093AD02B093AE0204C0BC
:101D1000809101020E942A0EFF91EF91BF91AF9135
:101D20009F918F917F916F915F914F913F912F91F3
:101D30000F900BBE0F900FBE0F901F90189580E074
:101D400008958091840490918504019686369105CA
:101D500020F081E080933E03089510923E030895A1
:101D60000895813041F480910E03882341F1459814
:101D700010920E030895811109C080910D038823EC
:101D8000F1F010920D035D9A5C980895823039F459
:101D900080910F03882399F010920F0308958330E8
:101DA00039F480911003882351F0109210030895A4
:101DB000843029F480911103811110921103089548
:101DC000CF92DF92EF92FF920F931F93CF93DF9307
:101DD000182F042FD0E0C62ED12CE12CF12CD017D7
:101DE000A1F0C0E0C11749F099B1906399B9C7015A
:101DF000B6010E945704CF5FF5CF6CE370E080E03E
:101E000090E00E945704DF5FEACFDF91CF911F91EE
:101E10000F91FF90EF90DF90CF900895613019F40B
:101E20005D985C9A01C05D9A5C9808955F926F928C
:101E30007F928F929F92AF92BF92CF92DF92EF925A
:101E4000FF920F931F93CF93DF93582E7B016A016C
:101E5000082F10E0E801C35FDC4F888181112AC0A0
:101E60000E9428043801660C771C660C771C9301CD
:101E700027503D4F3901F90180809180A280B380C5
:101E80008C0C9D1CA11CB11C681579058A059B054D
:101E900088F0E114F10471F081E0888361E0852D20
:101EA0000E940E0F0E942804F301608371838283D5
:101EB000938335C088818823B1F00E942804F801FB
:101EC000EE0FFF1FEE0FFF1FE750FD4F8080918048
:101ED000A280B3808E0C9F1CA11CB11C68157905D3
:101EE0008A059B0528F4EF28D1F488818823B9F06E
:101EF000188260E0852D0E940E0F0E942804F801D0
:101F0000EE0FFF1FEE0FFF1FE750FD4F6083718341
:101F100082839383F801EE5EFC4F81E08083DF9142
:101F2000CF911F910F91FF90EF90DF90CF90BF90D6
:101F3000AF909F908F907F906F905F9008954F9299
:101F40005F926F927F92BF92CF92DF92EF92FF9259
:101F50000F931F93CF93DF93B82EC82FD0E0CE01FD
:101F60008C509D4F6C01FC018081811114C081E077
:101F700080838AE08C9FF0018D9FF00D1124EE5339
:101F8000FD4F718360835383428335832483F782BB
:101F9000E682118700878E0103541D4FF80180816E
:101FA0008330F8F495E09C9FF0019D9FF00D112483
:101FB000E80FF11DEE0FFF1FEE53FD4F60817181A1
:101FC00061157105B9F18AE08C9FF0018D9FF00DCC
:101FD0001124EE53FD4F408551858B2D0E94160F25
:101FE00029C0FE01EE0FFF1FEE0FFF1FE750FD4F50
:101FF00040805180628073800E9428042AE02C9FD8
:10200000F0012D9FF00D1124EE53FD4F26813781F5
:10201000621B730B810991094616570668067906FB
:1020200048F4F8011082F6011082109235031092E4
:102030003C031FC0DE01AE5EBC4F8C91813091F03D
:10204000F801808195E09C9FF0019D9FF00D112487
:10205000E80FF11DEE0FFF1FEE53FD4F80819181C0
:10206000892BB9F4F8018081833010F48F5F80836D
:102070001C928B2DDF91CF911F910F91FF90EF90CC
:10208000DF90CF90BF907F906F905F904F900C94B7
:10209000B10EDF91CF911F910F91FF90EF90DF90E4
:1020A000CF90BF907F906F905F904F900895FC010C
:1020B00085E5615019F09191890FFBCF089540E1BA
:1020C00050E060E070E08FE094E00E949B2A60E1C5
:1020D0008FE094E00E94571090911E04891741F000
:1020E00010920F0488E893E19093110480931004F8
:1020F0000895CF93C82F60E18FE094E00E945710BD
:1021000080931E0440E150E060E070E08FE094E0D6
:102110000E94AB2AC13031F441E064E18FE0CF91FD
:102120000C94E00ECF91089581E28093A2032EE1FA
:102130002093A30397E19093A4038093A503209396
:10214000A6039093A7039AE59093B7032AE0209300
:10215000B80324E62093B90324E42093A8032DE2D6
:102160002093A9031092AA0320E42093AB0329E152
:102170002093AC0338E13093AD033FE03093AE03DE
:102180001092AF031092B00332E23093B1033EE0FD
:102190003093B20335E33093B3032093B4038093B9
:1021A000B50383E58093B60388E28093BA03109267
:1021B000BD031092BE031092BF039093C00381E44D
:1021C0008093C1031092C2031092C3031092C40300
:1021D00082E38093C5031092C6031092CC03109241
:1021E000CB031092CE031092CD031092D003109225
:1021F000CF031092D2031092D1031092C803109211
:10220000C7031092CA031092C9031092D3030C940F
:1022100025122F923F924F925F926F927F928F92F0
:102220009F92AF92BF92CF92DF92EF92FF920F9365
:102230001F93CF93DF93CDB7DEB72A970FB6F894ED
:10224000DEBF0FBECDBF10920F044DE650E060E13F
:1022500070E082EA93E00E949B2A6DE682EA93E0B6
:102260000E94571090910E04891749F043E064E6EC
:1022700086E00E94E00E0E94941080E0AEC0C09004
:10228000C103D12CE090C0030BE414E0612C712C4D
:10229000F12C38EA832E34E0932EA12CB12C669CCD
:1022A000C001679C900D900D11240F97C89E90015E
:1022B000C99E300DD89E300D1124C9018A509A4F05
:1022C000869DD001879DB00D969DB00D112497017C
:1022D0000E94D927A50194010E942928F801219381
:1022E00031938F01FFEF6F1A7F0A25E062167104A8
:1022F000B1F60091C50384E6A82EA01A34E6039F28
:10230000100111248091C603482E512C612C712C90
:1023100080900C0490900D04EAE3F7E0E819F909C5
:10232000FA87E987102F119525E334E03A83298352
:102330009EE6B92EB01AE82FF0E0F887EF8320E18F
:10234000C22E27E2D22EE12CF12C111614F44A2DC4
:1023500001C0402F1102D00111242F8138850E9425
:10236000D9276B837C838D839E83242F30E0D90112
:102370000E94CA279B01AC016B817C818D819E816B
:102380000E9429282C593F4F4F4F5F4F2419350980
:1023900046095709812F992787FD9095829FB001A3
:1023A000839F700D929F700D1124620D731D9B0110
:1023B000A985BA850E94CA27A70196010E9407280D
:1023C000C401820F931FE981FA8181939193FA836B
:1023D000E983165F1B11B9CF81E02A960FB6F894F6
:1023E000DEBF0FBECDBFDF91CF911F910F91FF9048
:1023F000EF90DF90CF90BF90AF909F908F907F90A5
:102400006F905F904F903F902F900895CF93C82F7B
:1024100010920F046DE682EA93E00E9457108093B9
:102420000E044DE650E060E170E082EA93E00E9425
:10243000AB2A0E940911C13031F441E064E18FE020
:10244000CF910C94E00ECF9108958AE194E090939F
:102450000D0480930C0480E00C9406124F925F925E
:102460006F927F928F929F92AF92BF92CF92DF92A4
:10247000EF92FF92CF936B017C0149015A010E94B8
:102480006A292B013C01B701A601F7FE07C04427CA
:102490005527BA014C195D096E097F09D501C401A0
:1024A000B7FE07C088279927DC0188199909AA096E
:1024B000BB09C1E0481759076A077B0744F0C0E031
:1024C000C501B4010E946A29A301920108C0C50197
:1024D000B4010E946A299B01AC01C301B2010E94B0
:1024E000CF282B013C019B01AC010E941E2A21ED4B
:1024F00031E944E650E40E9467289B01AC01C30126
:10250000B2010E94CF2823EC3DEC4FEF54E40E942F
:102510001E2A0E9437299B01CC2359F0B7FE12C016
:10252000F7FE03C0285037400DC09B01285F384F8D
:1025300009C0F7FC03C024E833E002C02CE73CEFFD
:10254000261B370BC901CF91FF90EF90DF90CF9002
:10255000BF90AF909F908F907F906F905F904F90C3
:102560000895CF92DF92EF92FF920F931F938B010A
:102570009C01359527951795079559EFC52EDD24B4
:10258000DA945FE1E52E5FE5F52EC01AD10AE20A82
:10259000F30A27E336E344E35FE30E941E2AA70120
:1025A00096010E941E2AA70196010E941E2A9B01E5
:1025B000AC0166EF78E487ED9FE30E9466289B01FB
:1025C000AC01C701B6010E941E2A1F910F91FF9016
:1025D000EF90DF90CF9008959B01AC01AA27429F16
:1025E000B0015302C00134039A0B700D811D9A1F74
:1025F00052039A0B700D811D9A1F112408954F925A
:102600005F926F927F92AF92BF92CF92DF92EF92E2
:10261000FF920F931F93CF93DF93EC018B01AA805E
:10262000BB80CE80DF80EA84FB84B501F801808125
:1026300091810E94EC122B013C01B601F8018281CC
:1026400093810E94EC12640D751D861D971D4884B0
:1026500059846A847B84461A570A680A790A48862C
:1026600059866A867B86B701F801808191810E9434
:10267000EC122B013C01B601F801848195810E9486
:10268000EC12461A570A680A790A88819981AA8148
:10269000BB81840D951DA61DB71D88839983AA83D0
:1026A000BB83B701F801828193810E94EC126B0118
:1026B0007C01B501F801848195810E94EC126C0DBA
:1026C0007D1D8E1D9F1D0C811D812E813F81060F5A
:1026D000171F281F391F0C831D832E833F83DF9113
:1026E000CF911F910F91FF90EF90DF90CF90BF900F
:1026F000AF907F906F905F904F9008952F923F9290
:102700004F925F926F927F928F929F92AF92BF9201
:10271000CF92DF92EF92FF920F931F93CF93DF93AD
:10272000CDB7DEB762970FB6F894DEBF0FBECDBF50
:102730000E9434046B017C01809125039091260353
:10274000B601681B790B80E090E00E94682929E1BE
:1027500034E442E959E30E941E2A6B877C878D8707
:102760009E87D0922603C092250369E1262E63E05E
:10277000362E0BEA14E09E012F5F3F4F590133E0E4
:102780003F83C12CD12C76014501D1014D905D9044
:102790006D907C90D301C20154E0B695A7959795B2
:1027A00087955A95D1F7F80191838083408D518D9B
:1027B000481B590B662757FD6095762F440D551D14
:1027C000661D771DF10141935193619371931F0130
:1027D000BC010E94EC12C60ED71EE81EF91ED801DD
:1027E00052966D917C915397882777FD8095982F0D
:1027F0000E946A292B853C854D855E850E941E2A94
:102800000E943729F501619371935F01FF81F150B7
:10281000FF830E5F1F4FF111B8CFB4018EE092E03D
:102820000E94FF12B40182E092E00E94FF12CD2CC0
:10283000DE2CEF2CFF24E7FCFA9427E6C21A23E0F3
:10284000D20A0EE012E04BEAE42E44E0F42E812C92
:10285000912C540132E3C31631E0D306F8F4D701CA
:102860004D915C91F80182819381481B590B662739
:1028700057FD6095762F26E0440F551F661F771F82
:102880002A95D1F780819181A281B381840F951F10
:10289000A61FB71F80839183A283B383D8011296AA
:1028A0006D917C911397F701819191917F010E9425
:1028B000EC12860E971EA81EB91E0C5F1F4FF2E089
:1028C0000A311F0739F68091180290911902209160
:1028D0008604813D914024F020682093860404C042
:1028E000822F8F778093860480911002909111023D
:1028F000BC010E94EC126B017C0180911802909146
:102900001902BC010E94EC12C60ED71EE81EF91E69
:102910008091140290911502BC010E94EC126C0D82
:102920007D1D8E1D9F1D0E946A290E94B1122B01E0
:102930003C01009110021091110220911802309177
:102940001902442737FD4095542FB801882777FD99
:102950008095982F0E942E1290939104809390045A
:10296000C701B6010E946A299B01AC012F87388BF1
:10297000498B5A8B0E94B1122F85388949895A890F
:102980000E941E2A0E9437299B01AC0180911402EB
:1029900090911502BC01882777FD8095982F0E94A1
:1029A0002E129093930480939204A0910802B09108
:1029B0000902A70196010E94EB276B017C01B80177
:1029C00080910402909105020E94EC126F83788737
:1029D00089879A87609118027091190280910C0280
:1029E00090910D020E94EC129B01AC018F819885A1
:1029F000A985BA85280F391F4A1F5B1FA0911402B1
:102A0000B09115020E94EB27A7019601261B370BF8
:102A1000480B590BCA01B9010E946A29A30192010E
:102A20000E941E2A0E9437299B01AC01609110026E
:102A30007091110280910C0290910D022F87388BBA
:102A4000498B5A8B0E94EC126B017C016091180239
:102A50007091190280910402909105020E94EC127B
:102A60006F83788789879A87C61AD70AE80AF90A8E
:102A70002F85388949895A89C701B6010E942E12CB
:102A80006AE070E00E94F3277093950460939404C9
:102A9000C501B4010E946A29A30192010E941E2A65
:102AA0000E9437292091860421FD12C0209117032E
:102AB00030911803A90193E0559547959A95E1F750
:102AC000241B350B260F371F309318032093170351
:102AD000209117033091180383E0359527958A9547
:102AE000E1F7621B730B70933403609333036296B8
:102AF0000FB6F894DEBF0FBECDBFDF91CF911F910F
:102B00000F91FF90EF90DF90CF90BF90AF909F908C
:102B10008F907F906F905F904F903F902F9008958F
:102B2000CF92DF92EF92FF920F931F93CF93DF9399
:102B30000E94B6240E947E130E9477248091BD04D7
:102B40009091BE0490932E0380932D038091BF0437
:102B50009091C0049093300380932F038091C1041F
:102B60009091C20490933203809331030E94340405
:102B7000EB010E94F7150E9434046C1B7D0B6A3830
:102B80007240CCF30E9477249DEBE92E94E0F92E5D
:102B9000CDE2D3E0E7E2F3E001EB14E040E023E034
:102BA000C22ED12CD7012D913D917D018881998133
:102BB000280F391F2993399380819181820F931FA8
:102BC000B6010E94F327D8016D937D938D01359551
:102BD0002795219331934F5F433021F7DF91CF91B8
:102BE0001F910F91FF90EF90DF90CF9008954F923B
:102BF0005F926F927F928F929F92AF92BF92CF928D
:102C0000DF92EF92FF920F931F93CF93DF93209168
:102C10007404309175042D3D45E03407C4F0609193
:102C2000C403203D57E0350774F4A9014C5D5540BD
:102C3000649FC001659F900D1124892F869540E8FF
:102C4000942E981A06C090E8992E961A02C080E831
:102C5000982E4090C203512CCEE6AC2EC4E0BC2E80
:102C6000E6E5F4E0C4EAD3E080E090E01CED612EFC
:102C700015E0712E00E8802ED5016D917D915D01EA
:102C80006D3DB5E07B072CF0603D47E074075CF0DC
:102C900007C0A301461B570B443FA1E05A0734F07D
:102CA00044EF51E003C0AB014C5D5540823009F464
:102CB00067C06A01CC0CCD2CCC1CDD08D1948601F8
:102CC000000F111F055B1B4FD801ED90FC90860192
:102CD000000F111F035B1B4FD8010D911C910E19A2
:102CE0001F09D601B695BA2FAA27B795A7956A01ED
:102CF000CA1ADB0A0C9DD0010D9DB00D1C9DB00DB4
:102D00001124AA0FAB2FAA1FBB0BB195AE0DBF1D8F
:102D1000B183A083449DD001459DB00D549DB00D5D
:102D200011244B2F4695B82DB41BB99DA001112439
:102D3000440F452F441F550B5195DE0112971C91EE
:102D4000149F7001159FF00C1124EE0CEF2CEE1C5B
:102D5000FF08F1948C010D5E1A4FD801EC92188196
:102D6000149F7001159FF00C1124EE0CEF2CEE1C3B
:102D7000FF08F194AC014F5E5A4FDA01EC9202C0A9
:102D8000518340836C3D75403CF4408151815195A5
:102D900041955109518340830196329623968330A1
:102DA000910509F069CF2C3444E034073CF0213D13
:102DB00057E035072CF020ED37E002C02CE434E07A
:102DC0002C543440AFEFB9E00E94CA2724E833E026
:102DD00040E050E00E940728832F9927FC01EE0F66
:102DE000FF1FEB5CFB4FA081B181FC01EE0FFF1FC9
:102DF000E95CFB4F608171816A1B7B0B982F8827F0
:102E0000281B390B629FC001639F900D729F900D2C
:102E10001124892F99278A0F9B1F90935D0480931B
:102E20005C04809110058F5F809310058091E5040C
:102E30009091E604892B31F48091E1049091E204B1
:102E4000892B21F089B1806389B90CC080918604F7
:102E500082FF02C05D9A5C988091860481FF02C067
:102E60005D985C9A4091EB045091EC046091ED0404
:102E70007091EE0480910C0590910D05A0910E05C6
:102E8000B0910F0584179507A607B70710F5809135
:102E9000860487FD1BC08B7F8093860489B1806385
:102EA00089B98091EB049091EC04A091ED04B0916C
:102EB000EE0480569947AE4FBF4F80930C05909318
:102EC0000D05A0930E05B0930F0503C08460809399
:102ED0008604DF91CF911F910F91FF90EF90DF90CB
:102EE000CF90BF90AF909F908F907F906F905F90AA
:102EF0004F900C944A2040E052EC61E070E080E09A
:102F00000E94132640E052EC61E070E081E00E94F4
:102F1000132640E052EC61E070E082E00E9413264C
:102F200040E052EC61E070E083E00E941326549A86
:102F300061E080E20E943F0561E08FE10E943F0571
:102F40000E940B1D0E945F1010920F040E94091135
:102F500080910F04882321F0815080930F04F6CFD5
:102F60000E945F100E94091140910F044F5F68E2B8
:102F700082E00E94E00E0E941F210E9419250E94FB
:102F800034047093EA046093E90480E092E0909343
:102F9000E2048093E10488EC90E09093E404809351
:102FA000E30480918604806880938604089580916C
:102FB000E1049091E20420918604892B89F422FF98
:102FC0000FC0822F8274B1F4226020938604809116
:102FD0009404909195049093E0048093DF04089505
:102FE00021FD08C041E06FEF82E00E94E00E81E029
:102FF00080933D0308958091860481FF03C08D7FF7
:103000008093860408952F923F924F925F926F9221
:103010007F928F929F92AF92BF92CF92DF92EF9268
:10302000FF920F931F93CF93DF93CDB7DEB76A97CD
:103030000FB6F894DEBF0FBECDBF8091EB04909128
:10304000EC0420910A0530910B058C01021B130B37
:10305000101611060CF034C1805E914B90930B0555
:1030600080930A050E944B22EEE6F4E040E0842FB4
:1030700090E09595879595958795482F2191319169
:103080002D3414E0310724F040682C3637400CF41E
:10309000406464E0E637F60751F78091090548136C
:1030A00008C0809108058A3F30F48F5F809308053F
:1030B00002C0109208054093090580917404909114
:1030C00075048D34944064F5109205051092040542
:1030D0001092070510920605109200051092010546
:1030E00010920205109203051092FD041092FC0448
:1030F0001092FF041092FE048091CB039091CC03B8
:10310000892B71F09091D90480918604992329F03C
:1031100080FF03C00E94D71703C081FD0E94FB17E8
:1031200080910805843109F068C08091860481FF90
:103130000FC08091CB039091CC03892B09F05DC027
:10314000809109058F3509F058C00E94FB1755C0C2
:1031500020910905273539F480E092E09093E2044C
:103160008093E10409C02B3639F40E943404709333
:10317000EA046093E90413C08091CB039091CC03DF
:10318000892B29F42F3619F40E94D71708C0273944
:1031900031F480E092E09093E6048093E50480911E
:1031A00009058B3B31F48091C9039091CA030296C3
:1031B00007C0873B51F48091C9039091CA030297DD
:1031C0009093CA038093C90313C08E3B31F480915E
:1031D000C7039091C803029607C08D3B71F480919C
:1031E000C7039091C80302979093C8038093C703C5
:1031F00081E00E94061210920805A6E7B4E080E084
:1032000090E020E030E04D915D9161E070E0453A62
:10321000F6E05F0714F460E070E0FC0132968B0189
:1032200002C0000F111FEA95E2F7F80161E070E0BB
:10323000443115E0510714F060E070E0082E02C040
:10324000660F771F0A94E2F76E2B7F2B455155408E
:10325000E1E0F0E04F38514010F0E0E0F0E0AC0188
:103260004F5F5F4F8F0102C0000F111F4A95E2F7B9
:10327000A801462B572B242B352B03968C30910518
:1032800011F6EBECF3E0A9EDB4E08191919182238A
:10329000932341E0892B09F440E04D9313E0E33D93
:1032A000F10799F78091DA042091860481115DC3BA
:1032B00080917E0490917F04C3970CF056C3FDC2A9
:1032C0008091FB04823051F028F4882339F081305A
:1032D00029F006C0833011F0843011F41092FB0401
:1032E0000E9434046093EB047093EC048093ED042B
:1032F0009093EE042091E9043091EA04AB01421B63
:10330000530B5093E8044093E7047093EA046093EE
:10331000E9040E94901540915A0450915B049A016F
:103320002B5B3F4F609186048091940490919504AB
:103330002B38310560F565FF2AC02091DF043091FC
:10334000E004821B930B8D34EFEF9E0714F4885931
:103350009E4F843B910514F08856914067FD04C050
:10336000209187042370B9F07091BA03789F90017F
:10337000799F300D1124F5E035952795FA95E1F701
:10338000421B530B50935B0440935A0404C0909328
:10339000E0048093DF0464FF23C080905804909081
:1033A000590497FE03C0919481949108809156042A
:1033B0009091570497FF03C09195819591099401CD
:1033C000881699060CF49C012130F2E03F0714F0B6
:1033D00020E032E04901AA2497FCA094BA2C03C053
:1033E000812C912C540106E514E0188F0F8B01EB12
:1033F00014E01E830D8304E015E01A83098303E1C2
:1034000015E01E8B0D8B07EF14E0188B0F8703EF71
:1034100014E01E870D870FEE14E01C870B8701E177
:1034200015E01C8B0B8B0FE214E01A8B098B03EA5F
:1034300013E01A87098702EA13E018870F830CEF5D
:1034400014E01C830B8300E010E0EF89F88D4190BD
:103450005190F88FEF8B440C551CED81FE818081DB
:103460009181E981FA81408151819C0197FF04C0DB
:1034700022273327281B390B21383240BCF4920114
:10348000281B390BC901840F951F81383EE3930730
:1034900014F080E89EE3803841EC940714F480E84F
:1034A00091ECE981FA819183808304C0E981FA81FA
:1034B00011821082E981FA8180819181880F892FA0
:1034C000881F990BE985FA852081289F3001299F63
:1034D000700C112466E0759467946A95E1F7EF81AA
:1034E000F885608170E0C2010E94EC126B017C01E2
:1034F00076E0F594E794D794C7947A95D1F71601BE
:1035000080918604887109F490C0F801E256FC4F5E
:1035100080819181840D951D853FF1E09F0714F016
:1035200084EF91E08C302EEF920714F48CE09EEF44
:10353000F801E057FB4F20813181821B930BF8018A
:10354000EE55FC4F25A136A1820F931FEB81FC8124
:1035500020813181280F391F2131F7E23F0714F014
:1035600020E137E2203F48ED340714F420EF38ED36
:10357000EB81FC81318320836091B70370E00E946E
:10358000EC1247E095958795779567954A95D1F721
:103590002091B903F5E02F9F90011124442755276E
:1035A000421B530B5A8F498F641775073CF07A8F73
:1035B000698F2617370714F43A8F298F6091B80363
:1035C00070E0EB81FC81808191810E94EC121B01F3
:1035D0002C018CE055944794379427948A95D1F721
:1035E000D301A219B309A50194010E94EB2729E098
:1035F00095958795779567952A95D1F73B01620C4C
:10360000731CD601298D3A8DA21BB30BA501940121
:103610000E94EB2739E095958795779567953A95C0
:10362000D1F7298C3A8C260E371EED89FE896191DF
:10363000FE8BED8B70E0ED81FE81808191810E9497
:10364000EC126101EE24D7FCE094FE2CA6E09595E7
:10365000879577956795AA95D1F7C61AD70AE80A8C
:10366000F90AED81FE8181919191FE83ED83EF85D1
:10367000F88920813181AC01421B530B9A0181935F
:103680009193F88BEF87ED85FE8540815181EB8525
:10369000FC8580819181840F951F41935193FC8714
:1036A000EB87ED85FE8521933193FE87ED87EB89CE
:1036B000FC896191FC8BEB8B70E0820F931F0E9461
:1036C000EC12C60CD71CB5E0959587957795679554
:1036D000BA95D1F7C61AD70AE989FA89C192D19267
:1036E000FA8BE98B0E5F1F4F29813A812E5F3F4F86
:1036F0003A83298349855A854D5F5F4F5A874987A9
:103700008F819885039698878F83EB81FC81329611
:10371000FC83EB830430110509F097CE6091C3035D
:1037200070E0615F7F4F660F771F80915A04909120
:103730005B040E94EC126B017C01F5E0F594E794C8
:10374000D794C794FA95D1F78091B5049091B604B7
:103750005601A81AB90A6091A90370E0C5010E9438
:10376000EC120091000510910105209102053091A5
:103770000305A601D7FE04C0442755274C195D094F
:103780004333510524F5AB01BC01400F511F621FAB
:10379000731F4F3FFFEF5F076F07FFE07F0724F0C6
:1037A0004EEF5FEF6FEF7FE042305105610500EFB4
:1037B000700724F442E050E060E070EF40930005B1
:1037C00050930105609302057093030508C01092A1
:1037D00000051092010510920205109203056091F8
:1037E000A80370E0C5010E94EC1256E095958795FC
:1037F000779567955A95D1F72091AA034CE251E04D
:10380000421B510922273327241B350B62177307EC
:103810002CF09B01461757070CF49A018091000584
:1038200090910105A0910205B09103054DE0B59579
:10383000A795979587954A95D1F786301FEF910701
:1038400034F08B3F91052CF08AEF90E002C086E0C7
:103850009FEF820F931F90933404809333040E9450
:10386000881D8091860481FD0CC08091E1049091B7
:10387000E204892B41F48091E5049091E604892BC0
:1038800011F40E94C31C6A960FB6F894DEBF0FBEF7
:10389000CDBFDF91CF911F910F91FF90EF90DF90FF
:1038A000CF90BF90AF909F908F907F906F905F90E0
:1038B0004F903F902F900C94C41C23FF08C010928F
:1038C00005051092040510920705109206058091D7
:1038D0008604877F809386048091DB04882389F0A7
:1038E00080918604877F8093860484FD1BC010929C
:1038F000FD041092FC041092FF041092FE048061FB
:103900000FC08091860484FF08C0109205051092B4
:1039100004051092070510920605809186048F7E9B
:10392000809386048091D904811105C0809186041A
:103930008160809386048091DC04882381F08091EB
:10394000860485FDCDCC80628093860480919404AA
:10395000909195049093E0048093DF04C1CC809112
:1039600086048F7D80938604BBCC23FDB5CF109257
:10397000FD041092FC041092FF041092FE042860D3
:1039800020938604A9CF089580911F04909120046C
:1039900023E0880F991F2A95E1F790939D0080936B
:1039A0009C00809121049091220433E0880F991F9C
:1039B0003A95E1F7909399008093980080912304C1
:1039C0009091240443E0880F991F4A95E1F7909362
:1039D000A9008093A800809125049091260453E0CB
:1039E000880F991F5A95E1F790939B0080939A0056
:1039F00008959093200480931F0490932204809351
:103A000021049093240480932304909326048093AC
:103A100025040C94C41CCF93DF93CEE2D2E061E086
:103A200089910E943F0582E0C233D807C1F7809197
:103A30009000826080939000809190008E7F8093B0
:103A4000900080919100806180939100809191001D
:103A50008D7F8093910080919600909197008F6F59
:103A60009F63909397008093960080919000886068
:103A70008093900080919000806880939000809166
:103A8000A00082608093A0008091A0008E7F809330
:103A9000A0008091A10080618093A1008091A1008D
:103AA0008D7F8093A1008091A6009091A7008F6FD9
:103AB0009F639093A7008093A6008091A0008068E8
:103AC0008093A0008091900080628093900088EEA7
:103AD00093E00E94F91C6CE271E080E090E0DF91DD
:103AE000CF910C94570497E0899FF0011124EE5573
:103AF000FC4F26A937A92830310544F4F901EE0F0F
:103B0000FF1FE259FB4F808191810895C9010895FB
:103B1000FF920F931F93CF93DF9360915C0470919A
:103B20005D0480912F0490913004AB01481B590B28
:103B3000A0913104B0913204E0913304F091340447
:103B40009A012A0F3B1F2E1B3F0B3093200420931A
:103B50001F044A1B5B0B4E0F5F1F509322044093C0
:103B60002104860F971FBC016A0F7B1F6E0F7F1FFA
:103B700070932404609323048A1B9B0B8E1B9F0B62
:103B80009093260480932504641775070CF4BA01FA
:103B9000621773070CF4B9019B01681779070CF4DD
:103BA0009C0140910C0450910D04A0917404B091BB
:103BB000750480918604182F1074F12E082F02705E
:103BC000EFE1F4E06AE377E0621B730BC8EED3E049
:103BD0002B3387E0380734F080819181860F971F5F
:103BE0009183808380819181841795073CF08B338A
:103BF00017E0910724F08AE397E001C0CA0191839E
:103C00008083AC3484E0B80724F4F11002C05183FF
:103C10004083011102C0D183C083329694E0E73221
:103C2000F907B1F6DF91CF911F910F91FF900895A1
:103C300020912D0630E0D901AB5DBA4F615088F07C
:103C40004C9151E0540F5C93F90154E0459FE00D15
:103C5000F11D1124E35DFA4F4081FC014193CF0136
:103C6000EDCF0895CF93C82F682F80912D060E9425
:103C70007B27E0912D06F0E0E75DFA4F90819C27CD
:103C80009083CF9108950F931F93CF93DF931F924B
:103C9000CDB7DEB78C01680F601741F0F801819154
:103CA0008F0169830E94321E6981F6CF0F90DF91E8
:103CB000CF911F910F910895CF93DF93D82FC62FE7
:103CC00084E20E94321E8DE40E94321EDD2311F038
:103CD00081E201C08EE30E94321EE0912D06F0E0E9
:103CE000E75DFA4F10828C2F0E94321EE0912D0664
:103CF000F0E0EF5DFA4F8081DF91CF910C94321E9E
:103D0000E0912D06F0E0E75DFA4F80810E94321EBF
:103D100080912D060C94F32560E080E00E945C1EEB
:103D20000C94801E1F93CF93DF93EC01162F80E03D
:103D30000E945C1E612FCE010E94431EDF91CF9135
:103D40001F910C94801ECF93DF93EC010E94852A73
:103D5000682F80E00E945C1EFE018491882331F070
:103D6000FE0184910E94321E2196F6CFDF91CF9101
:103D70000C94801E0F931F93CF93DF93CDB7DEB7C4
:103D800066970FB6F894DEBF0FBECDBF853709F436
:103D900037C108F061C08D3609F426C138F5873681
:103DA00009F401C1B8F4853609F4CCC008F0F7C0B5
:103DB000843609F05EC180EF898383E08A831B82A9
:103DC00080E090E0A0E0B0E78C839D83AE83BF836A
:103DD00067E0E2C0893609F403C108F4F2C08C360A
:103DE00009F047C166E080E994E040C1813709F4F9
:103DF0000AC148F48F3609F4FBC008F0FDC067E043
:103E00008CE994E033C1833709F411C108F0FFC095
:103E100080918204909183049A83898380910C0419
:103E200090910D049C838B838AE397E09E838D831E
:103E300088EE93E098878F831A8619861C861B86E6
:103E40001D861E861F86188A1A8A198A1B8A1C8A52
:103E50001D8A1E8A66E1A0C08F3C09F45FC0D8F4B9
:103E60008A3C09F447C078F4883709F4A0C0883C3C
:103E7000C1F1873709F0FDC064E080E00E945C1E5C
:103E80000DEC12E0C9C08C3C09F442C0C8F18D3C75
:103E900009F4D8C0EEC08F3E09F497C050F4833DBA
:103EA00009F44AC0843D09F486C0803D09F0E1C0B0
:103EB000C2C08A3F09F4D1C08E3F09F4D4C0803F0C
:103EC00009F0D7C064E080E00E945C1E62E089ECEB
:103ED00093E00E94431E62E087EC93E00E94431E41
:103EE000CCC060E18EE594E00E94181E82E38093CE
:103EF0005504C5C00E948C1E6EE182EA93E005C0A5
:103F00000E948C1E68E08BEC93E00E94181EB7C0E4
:103F10000E948C1E67E080EC93E0F7CF0E948C1E1D
:103F200066E1CE0101960E94181E8B819C819093C0
:103F30000D0480930C04A3C00E948C1E62E08FEDE0
:103F400094E0E3CF8091E7049091E8049A83898319
:103F500080918404909185049C838B8381E090E020
:103F60009E838D832091860423FD04C080E090E031
:103F7000DC0104C082E090E0A0E0B0E024FD8460B9
:103F800025FD886021FD81608F839887A987BA8786
:103F900080910F048B876BE0CE01019667C062E1D0
:103FA0008BEA94E063C060E18DE192E05FC068E37A
:103FB00084ED93E05BC00E948C1E68E384ED93E087
:103FC000A4CF60E18FE194E051C00E948C1E62E0BA
:103FD00089EC93E00E94181E62E087EC93E095CF95
:103FE00060E18EE694E042C066E086E994E03EC07F
:103FF00067E080EC93E03AC06EE182EA93E036C07D
:1040000088EE92E006C068E08BEC93E02FC081ED73
:1040100092E00E94A31E33C0F80184910E94321ED8
:104020000F5F1F4FF2E0013D1F07B1F726C068E0A8
:104030008EE292E01BC08091860481FD11C00E9437
:1040400094100EC08091860481FD0AC080E092E049
:104050009093E6048093E50403C080E00E9406127A
:104060000E948C1E0CC068E088E894E00E94921EBA
:1040700006C060E081E00E945C1E0E94801E669681
:104080000FB6F894DEBF0FBECDBFDF91CF911F9169
:104090000F9108954F925F926F927F928F929F92AD
:1040A000AF92BF92CF92DF92EF92FF920F931F9346
:1040B000CF93DF930E9434048DE1882E85E0982E03
:1040C00099E1A92E95E0B92E09E215E025E1E22E4D
:1040D00025E0F22E31E2C32E35E0D32EC0E0D0E051
:1040E0005C2EC0932D068C2F0E946227FE01EB5D93
:1040F000FA4F3F0144244A94480E882309F461C0D2
:10410000852D0E946E278F3408F06EC0852D0E9489
:104110004A27F4019081911105C091E0843209F0A1
:1041200048C04BC0913029F48D3409F042C092E070
:1041300044C0923021F48C33E1F593E03EC09330DB
:1041400061F48134E0F5F5018083F8018083F701A3
:104150001082F301108294E030C0943041F4F601F3
:104160008083F80190819827908395E026C0953050
:1041700021F5F7012081F5013081F801231788F43A
:1041800030813827308331E0320FF7013083FE0170
:1041900034E0239FE00DF11D1124E35DFA4F80838D
:1041A0000CC09081981307C0F60180810E94BA1E4E
:1041B00002C090E002C090E0412CF4019083842D75
:1041C00099CF2196FFEF8F1A9F0A2FEFA21AB20AFA
:1041D0000F5F1F4F3FEFE31AF30A8FEFC81AD80A99
:1041E000C430D10509F07CCFDF91CF911F910F91A1
:1041F000FF90EF90DF90CF90BF90AF909F908F9007
:104200007F906F905F904F90089508951F93CF9384
:10421000DF931F92CDB7DEB7182F862F10932D0690
:1042200079830E94321E7981872F0E94321E812F4E
:104230000F90DF91CF911F910C94F3250895109268
:104240000701E0E5F2E080910801DF019191892BFF
:104250008093080180916D009C91892B80936D0063
:1042600082E0E835F80779F784E0809368000895E4
:104270001F920F920FB60F9211240BB60F922F932D
:104280003F934F935F936F937F938F939F93AF93DE
:10429000BF93CF93DF93EF93FF93C0910601D0912B
:1042A0006F06DC270E9434047894C0936F06D2FF17
:1042B00018C0C2FD12C020915F0630916006AB01AC
:1042C000421B530B9A01455853404331554048F423
:1042D00030933B0220933A0204C0709360066093CF
:1042E0005F06D4FF18C0C4FD12C020916106309152
:1042F0006206AB01421B530B9A01455853404331B0
:10430000554048F430933F0220933E0204C070931E
:10431000620660936106D5FF18C0C5FD12C02091EA
:10432000630630916406AB01421B530B9A0145585A
:1043300053404331554048F43093410220934002AA
:1043400004C07093640660936306D6FF18C0C6FD70
:1043500012C02091650630916606AB01421B530BDB
:104360009A01455853404331554048F43093430235
:104370002093420204C07093660660936506D7FFDF
:1043800018C0C7FD12C02091670630916806AB01C6
:10439000421B530B9A01455853404331554048F452
:1043A000309345022093440204C0709368066093E2
:1043B0006706D0FF18C0C0FD12C020916906309179
:1043C0006A06AB01421B530B9A01455853404331D7
:1043D000554048F4309337022093360204C070935E
:1043E0006A0660936906D1FF18C0C1FD12C0209112
:1043F0006B0630916C06AB01421B530B9A0145587A
:1044000053404331554048F43093390220933802E9
:1044100004C070936C0660936B06D3FF17C0C3FD96
:1044200011C020916D0630916E06621B730BCB019B
:10443000855893408331954048F470933D026093D2
:104440003C0204C070936E0660936D06FF91EF917D
:10445000DF91CF91BF91AF919F918F917F916F919C
:104460005F914F913F912F910F900BBE0F900FBE18
:104470000F901F9018952FB7F894E82FF0E0E85AA6
:10448000FD4FE081F0E0EE0FFF1FEA5CFD4F808101
:1044900091812FBF0895CF92DF92EF92FF920F93F9
:1044A0001F93CF93DF9380915E068F5F833019F067
:1044B00080935E0602C010925E066EE2E62E66E013
:1044C000F62ECEE6D4E07EE5C72E74E0D72E00E0CF
:1044D00010E0802F0E943B229C012E5F3F4FF7018E
:1044E00040815181240F351F42815381240F351F94
:1044F00044815581240F351F36952795369527958C
:1045000048815981435051092417350728F4A901DE
:104510004E5F5F4F59834883488159814D5F5F4F9C
:104520004217530720F42250310939832883209100
:104530005E06F801EE0FFF1FE00FF11FE20FF11D05
:10454000EE0FFF1FE25DF94F918380838091550448
:10455000882361F0815080935504F6018081918118
:104560008538F3E09F0714F0998388830F5F1F4F0E
:1045700026E0E20EF11C229682E0C80ED11C083023
:10458000110509F0A6CFDF91CF911F910F91FF90F8
:10459000EF90DF90CF900895589859981092B900F5
:1045A0008CE08093B80084E08093BC001092850476
:1045B0001092840408958093BC008FEF9091BC000A
:1045C00097FD0EC08150D1F71092BC0080918404F9
:1045D00090918504019690938504809384040895B6
:1045E0000895CF93C82F84EA0E94DB22C093BB00BA
:1045F00084E8CF910C94DB2284E98093BC00089579
:104600008093BB0084E80C94DB2284EC0E94DB22C4
:104610008091BB00089584E80E94DB228091BB005A
:1046200094E99093BC000895CF92DF92EF92FF92AD
:104630000F931F93CF93DF931F92CDB7DEB7182F41
:104640006A01E22E880F69830E94F1226981862F18
:104650000E940023812F880F81600E94F122860131
:10466000FE2CFA94FF2031F00E940523F80181937B
:104670008F01F7CFEA9486010E0D111D0E940B23C6
:10468000F80180830F90DF91CF911F910F91FF90E0
:10469000EF90DF90CF90089526E04EE856E00C941E
:1046A0001423CF93DF931F921F92CDB7DEB7880FED
:1046B0004A8369830E94F1226981862F0E94002328
:1046C0004A81842F0E94002384E98093BC000F90CC
:1046D0000F90DF91CF910895CF93DF931F92CDB7C5
:1046E000DEB721E0AE014F5F5F4F0E941423898146
:1046F0000F90DF91CF910895CF92DF92EF92FF92CA
:10470000CF93DF932091E1043091E204211531052C
:10471000B9F1CDEBD4E0E2E8F6E049EC54E0211544
:1047200082E0380721F4108211821282138289916B
:104730009991AA2797FDA095BA2FC080D180E280D9
:10474000F3808C0D9D1DAE1DBF1D81939193A19390
:10475000B1936C017D0189E0F594E794D794C794F7
:104760008A95D1F7DA01CD92DD92AD01B4E0C33C78
:10477000DB07A9F6215031093093E2042093E104CC
:10478000E9ECF4E0CDEBD4E0ACE7B6E081919191B7
:1047900028813981281B390B4D915C911197CA01F1
:1047A00080529340281739073CF0CA01805E9C4F25
:1047B000281739070CF4C901899399938D939D9318
:1047C00084E0EF3CF80711F7DF91CF91FF90EF9075
:1047D000DF90CF900895CF92DF92EF92FF92CF9328
:1047E000DF932091E5043091E6042115310509F4A9
:1047F0004DC0215031093093E6042093E504C3EC09
:10480000D4E0E0E7F6E040E154E02F3F81E03807F4
:1048100021F4108211821282138289919991AA2720
:1048200097FDA095BA2FC080D180E280F3808C0DD7
:104830009D1DAE1DBF1D81939193A193B1936C01FA
:104840007D0189E0F594E794D794C7948A95D1F7D0
:10485000DA01CD92DD92AD01B4E0C93CDB07A9F6E7
:10486000232BA1F4809114049091150492509093FD
:104870001504809314041092C8031092C703109279
:10488000CA031092C90381E00E9479108091C30489
:104890009091C4042091100430911104821B930B59
:1048A0009093C4048093C3048091C5049091C6047E
:1048B0002091120430911304821B930B9093C60431
:1048C0008093C5048091C7049091C804209114047A
:1048D00030911504821B930B9093C8048093C704F6
:1048E000DF91CF91FF90EF90DF90CF90089563E438
:1048F00088E60E944C2380918E0690E0982F8827AE
:1049000020918F06822B9195819591099595879598
:10491000959587959093BE048093BD0480919006F1
:1049200090E0982F882720919106822B9195819570
:10493000910995958795959587959093C004809357
:10494000BF048091920690E0982F882720919306CB
:10495000822B919581959109959587959595879548
:104960009093C2048093C1040C947C236BE388E68B
:104970000E944C238091900690E0982F88272091E8
:104980009106822B91958195910933E095958795B4
:104990003A95E1F79093C4048093C30480918E0606
:1049A00090E0982F882720918F06822B53E09595D1
:1049B00087955A95E1F79093C6048093C50480913A
:1049C000920690E0982F882720919306822B73E01F
:1049D000959587957A95E1F79093C8048093C704DD
:1049E0000C94EB2308950E94CC2240E86BE688E605
:1049F0000E94512362E370E080E090E00E9457043F
:104A000043E06BE688E60E94512340E06AE188E6D5
:104A10000E94512348E16BE188E60E94512342E065
:104A200067E388E60E94512340E16CE188E60C943C
:104A30005123CF93C5E00E94F32480918404909188
:104A40008504892B11F0C150B1F7CF9108951F92C1
:104A50000F920FB60F9211240BB60F928F939F9364
:104A6000EF93FF938091940890919808981771F0B4
:104A70008F5F87FD80E094E0899FF0011124EC5660
:104A8000F94F90819093C600809394089091980874
:104A9000891305C08091C1008F7D8093C100FF9173
:104AA000EF919F918F910F900BBE0F900FBE0F90C3
:104AB0001F9018951F920F920FB60F9211240BB6EC
:104AC0000F928F939F93EF93FF938091950890910E
:104AD0009908981771F08F5F87FD80E094E0899FB7
:104AE000F0011124EC56F94F91819093CE00809300
:104AF000950890919908891305C08091C9008F7D10
:104B00008093C900FF91EF919F918F910F900BBE01
:104B10000F900FBE0F901F9018951F920F920FB617
:104B20000F9211240BB60F928F939F93EF93FF93E5
:104B30008091960890919A08981771F08F5F87FD81
:104B400080E094E0899FF0011124EC56F94F9281A6
:104B50009093D6008093960890919A08891305C087
:104B60008091D1008F7D8093D100FF91EF919F9133
:104B70008F910F900BBE0F900FBE0F901F90189546
:104B80001F920F920FB60F9211240BB60F928F93B4
:104B90009F93EF93FF938091970890919B089817AC
:104BA00071F08F5F87FD80E094E0899FF001112410
:104BB000EC56F94F9381909336018093970890912A
:104BC0009B08891305C0809131018F7D809331014D
:104BD000FF91EF919F918F910F900BBE0F900FBEA1
:104BE0000F901F901895813061F028F0823079F095
:104BF000833099F008958091C10080628093C10054
:104C000008958091C90080628093C90008958091C1
:104C1000D10080628093D10008958091310180623B
:104C2000809331010895CF92DF92EF92FF92CF935C
:104C3000C82F9A01AB0160E079E08DE390E00E941B
:104C40000728215031094109510956954795379553
:104C50002795C32ED42EE52EFF24C130F9F088F01D
:104C6000C23049F1C33091F582E080933001C092A7
:104C7000350120933401809131018869809331019D
:104C800025C082E08093C000C092C5002093C4007C
:104C90008091C10088698093C10018C082E0809330
:104CA000C800C092CD002093CC008091C9008869D3
:104CB0008093C9000BC0C093D000C092D500209350
:104CC000D4008091D10088698093D100CF91FF906A
:104CD000EF90DF90CF900895813061F028F082301E
:104CE00079F0833099F008958091C10087748093A2
:104CF000C10008958091C90087748093C900089508
:104D00008091D10087748093D10008958091310102
:104D10008774809331010895E62FF0E0DF01A056FB
:104D2000B34F9C9121E0290F34E0939FE00DF11DDA
:104D30001124E456F74F80832C9308951F920F920D
:104D40000FB60F9211240BB60F922F933F934F93F0
:104D50005F936F937F938F939F93AF93BF93EF93E3
:104D6000FF938091C60060E00E948C26FF91EF9136
:104D7000BF91AF919F918F917F916F915F914F9173
:104D80003F912F910F900BBE0F900FBE0F901F9071
:104D900018951F920F920FB60F9211240BB60F9217
:104DA0002F933F934F935F936F937F938F939F9333
:104DB000AF93BF93EF93FF938091CE0061E00E9489
:104DC0008C26FF91EF91BF91AF919F918F917F9131
:104DD0006F915F914F913F912F910F900BBE0F906C
:104DE0000FBE0F901F9018951F920F920FB60F9243
:104DF00011240BB60F922F933F934F935F936F93B2
:104E00007F938F939F93AF93BF93EF93FF93809183
:104E1000D60062E00E948C26FF91EF91BF91AF9186
:104E20009F918F917F916F915F914F913F912F91C2
:104E30000F900BBE0F900FBE0F901F9018951F92F2
:104E40000F920FB60F9211240BB60F922F933F9330
:104E50004F935F936F937F938F939F93AF93BF9382
:104E6000EF93FF938091360163E00E948C26FF91BF
:104E7000EF91BF91AF919F918F917F916F915F91D2
:104E80004F913F912F910F900BBE0F900FBE0F903F
:104E90001F901895282F30E0D901A456B34F9C914C
:104EA000F90184E0989FE00DF11D1124E456F74FBD
:104EB0008081F901E056F34F2081291711F09F5F9F
:104EC0009C930895282F30E0F901E056F34F80813C
:104ED000F901E456F34F9081891B0895282F30E0A3
:104EE000F901E856F74F8081F901EC56F74F9081B0
:104EF000891B8F770895E82FF0E0DF01A856B74FA0
:104F00008C918F5F87FD80E094E0899FE00DF11D1B
:104F10001124EC56F94F60838C930895CF93C82FDA
:104F20000E947B278C2FCF910C94F32584E692E08E
:104F300090938E0280938D0210928F0210929002B5
:104F4000109291021092920208950E9489040E9488
:104F500004080E947B17C5E0D6E00E940318209742
:104F6000E1F30E940506F9CF6115710581F0DB01BF
:104F70000D900020E9F7AD0141505109461B570B38
:104F8000DC01ED91FC910280F381E02D199480E029
:104F900090E00895A29FB001B39FC001A39F700D40
:104FA000811D1124911DB29F700D811D1124911D31
:104FB00008950E94CA27B7FF0895821B930B089596
:104FC0000E94CA27A59F900DB49F900DA49F800DAD
:104FD000911D11240895B7FF0C94E0270E94E0274B
:104FE000821B930B089597FB072E16F4009407D0AD
:104FF00077FD09D00E944E2807FC05D03EF490951D
:1050000081959F4F0895709561957F4F0895A1E216
:105010001A2EAA1BBB1BFD010DC0AA1FBB1FEE1F32
:10502000FF1FA217B307E407F50720F0A21BB30B7D
:10503000E40BF50B661F771F881F991F1A9469F7F9
:1050400060957095809590959B01AC01BD01CF0155
:105050000895052E97FB1EF400940E94402857FDEA
:1050600007D00E94072807FC03D04EF40C94402878
:1050700050954095309521953F4F4F4F5F4F089584
:1050800090958095709561957F4F8F4F9F4F0895B4
:10509000EE0FFF1F0590F491E02D1994AA1BBB1B86
:1050A00051E107C0AA1FBB1FA617B70710F0A61B28
:1050B000B70B881F991F5A95A9F780959095BC0149
:1050C000CD0108950790F691E02D19945058BB2713
:1050D000AA270ED075C166D130F06BD120F031F423
:1050E0009F3F11F41EF45BC10EF4E095E7FB51C144
:1050F000E92F77D180F3BA17620773078407950702
:1051000018F071F49EF58FC10EF4E0950B2EBA2FB6
:10511000A02D0B01B90190010C01CA01A0011124BD
:10512000FF27591B99F0593F50F4503E68F11A1669
:10513000F040A22F232F342F4427585FF3CF4695FA
:1051400037952795A795F0405395C9F77EF41F161C
:10515000BA0B620B730B840BBAF09150A1F0FF0FE6
:10516000BB1F661F771F881FC2F70EC0BA0F621FD2
:10517000731F841F48F4879577956795B795F795C2
:105180009E3F08F0B3CF9395880F08F09927EE0F54
:10519000979587950895D9D008F481E008950CD0AB
:1051A0000FC107D140F0FED030F021F45F3F19F07D
:1051B000F0C0511139C1F3C014D198F39923C9F348
:1051C0005523B1F3951B550BBB27AA27621773070D
:1051D000840738F09F5F5F4F220F331F441FAA1FC1
:1051E000A9F333D00E2E3AF0E0E830D09150504081
:1051F000E695001CCAF729D0FE2F27D0660F771F2F
:10520000881FBB1F261737074807AB07B0E809F010
:10521000BB0B802DBF01FF2793585F4F2AF09E3FA5
:10522000510568F0B6C000C15F3FECF3983EDCF377
:10523000869577956795B795F7959F5FC9F7880F1E
:10524000911D9695879597F90895E1E0660F771F70
:10525000881FBB1F621773078407BA0720F0621B01
:10526000730B840BBA0BEE1F88F7E095089504D0FA
:105270006894B111D9C00895BCD088F09F5790F0C0
:10528000B92F9927B751A0F0D1F0660F771F881F6B
:10529000991F1AF0BA95C9F712C0B13081F0C3D086
:1052A000B1E00895C0C0672F782F8827B85F39F024
:1052B000B93FCCF3869577956795B395D9F73EF4CA
:1052C00090958095709561957F4F8F4F9F4F089572
:1052D000E89409C097FB3EF4909580957095619590
:1052E0007F4F8F4F9F4F9923A9F0F92F96E9BB2746
:1052F0009395F695879577956795B795F111F8CFC2
:10530000FAF4BB0F11F460FF1BC06F5F7F4F8F4F2C
:105310009F4F16C0882311F096E911C0772321F022
:105320009EE8872F762F05C0662371F096E8862FBA
:1053300070E060E02AF09A95660F771F881FDAF711
:10534000880F9695879597F90895990F0008550F3E
:10535000AA0BE0E8FEEF16161706E807F907C0F0FB
:1053600012161306E407F50798F0621B730B840B03
:10537000950B39F40A2661F0232B242B252B21F4DD
:1053800008950A2609F4A140A6958FEF811D811D7D
:10539000089597F99F6780E870E060E008959FEFB7
:1053A00080EC089500240A941616170618060906BC
:1053B000089500240A94121613061406050608958B
:1053C000092E0394000C11F4882352F0BB0F40F413
:1053D000BF2B11F460FF04C06F5F7F4F8F4F9F4F53
:1053E000089557FD9058440F551F59F05F3F71F0D5
:1053F0004795880F97FB991F61F09F3F79F087953C
:105400000895121613061406551FF2CF4695F1DFC4
:1054100008C0161617061806991FF1CF8695710554
:10542000610508940895E894BB2766277727CB0188
:1054300097F908958ADF08F48FEF08950BD0C0CF55
:10544000B1DF28F0B6DF18F0952309F0A2CFA7CF7F
:105450001124EACFC6DFA0F3959FD1F3950F50E05A
:10546000551F629FF001729FBB27F00DB11D639F16
:10547000AA27F00DB11DAA1F649F6627B00DA11DBC
:10548000661F829F2227B00DA11D621F739FB00D62
:10549000A11D621F839FA00D611D221F749F3327D2
:1054A000A00D611D231F849F600D211D822F762F6B
:1054B0006A2F11249F5750408AF0E1F088234AF068
:1054C000EE0FFF1FBB1F661F771F881F91505040B4
:1054D000A9F79E3F510570F05CCFA6CF5F3FECF37C
:1054E000983EDCF3869577956795B795F795E795A0
:1054F0009F5FC1F7FE2B880F911D9695879597F9B1
:10550000089523DF880B990B0895FC010590002076
:10551000E9F7809590958E0F9F1F0895FB01DC01A0
:1055200004C08D910190801921F441505040C8F77A
:10553000881B990B0895DC01CB01FC01F999FECF82
:1055400006C0F2BDE1BDF89A319600B40D9241500B
:105550005040B8F70895DC01CB0103C02D910E94A3
:10556000B62A41505040D0F70895262FF999FECF22
:105570001FBA92BD81BD20BD0FB6F894FA9AF99A70
:0A5580000FBE01960895F894FFCFC6
:10558A0001FF000000000000000100000000000010
:10559A0000000000000000000002F6FF01DC05DC4C
:1055AA0005DC05DC05DC05DC05DC05E8037E030516
:1055BA0006020708090ADE05DE05DE05DE05DE0548
:1055CA00DE05DE05DE050000A40C20000100000057
:1055DA0004102040800102080102030004050607A6
:1055EA000000000077076E616E00696E66006F76D4
:0455FA0066002E0019
:00000001FF
